{
	"FundMe.sol": {
		"Fundme": {
			"abi": [
				{
					"inputs": [],
					"stateMutability": "nonpayable",
					"type": "constructor"
				},
				{
					"inputs": [],
					"name": "NotOwner",
					"type": "error"
				},
				{
					"stateMutability": "payable",
					"type": "fallback"
				},
				{
					"inputs": [
						{
							"internalType": "address",
							"name": "funder",
							"type": "address"
						}
					],
					"name": "addressToAmountFunded",
					"outputs": [
						{
							"internalType": "uint256",
							"name": "amountFunded",
							"type": "uint256"
						}
					],
					"stateMutability": "view",
					"type": "function"
				},
				{
					"inputs": [],
					"name": "fund",
					"outputs": [],
					"stateMutability": "payable",
					"type": "function"
				},
				{
					"inputs": [
						{
							"internalType": "uint256",
							"name": "",
							"type": "uint256"
						}
					],
					"name": "funders",
					"outputs": [
						{
							"internalType": "address",
							"name": "",
							"type": "address"
						}
					],
					"stateMutability": "view",
					"type": "function"
				},
				{
					"inputs": [],
					"name": "i_owner",
					"outputs": [
						{
							"internalType": "address",
							"name": "",
							"type": "address"
						}
					],
					"stateMutability": "view",
					"type": "function"
				},
				{
					"inputs": [],
					"name": "minimumUsd",
					"outputs": [
						{
							"internalType": "uint256",
							"name": "",
							"type": "uint256"
						}
					],
					"stateMutability": "view",
					"type": "function"
				},
				{
					"inputs": [],
					"name": "withdraw",
					"outputs": [],
					"stateMutability": "nonpayable",
					"type": "function"
				},
				{
					"stateMutability": "payable",
					"type": "receive"
				}
			],
			"devdoc": {
				"kind": "dev",
				"methods": {},
				"version": 1
			},
			"evm": {
				"assembly": "    /* \"FundMe.sol\":136:1385  contract Fundme{... */\n  mstore(0x40, 0x80)\n    /* \"FundMe.sol\":223:227  2e18 */\n  0x1bc16d674ec80000\n    /* \"FundMe.sol\":197:227  uint256 public minimumUsd=2e18 */\n  0x00\n  sstore\n    /* \"FundMe.sol\":628:681  constructor() {... */\n  callvalue\n  dup1\n  iszero\n  tag_1\n  jumpi\n  0x00\n  dup1\n  revert\ntag_1:\n  pop\n    /* \"FundMe.sol\":663:673  msg.sender */\n  caller\n    /* \"FundMe.sol\":653:660  i_owner */\n  0x01\n  0x00\n    /* \"FundMe.sol\":653:673  i_owner = msg.sender */\n  0x0100\n  exp\n  dup2\n  sload\n  dup2\n  0xffffffffffffffffffffffffffffffffffffffff\n  mul\n  not\n  and\n  swap1\n  dup4\n  0xffffffffffffffffffffffffffffffffffffffff\n  and\n  mul\n  or\n  swap1\n  sstore\n  pop\n    /* \"FundMe.sol\":136:1385  contract Fundme{... */\n  dataSize(sub_0)\n  dup1\n  dataOffset(sub_0)\n  0x00\n  codecopy\n  0x00\n  return\nstop\n\nsub_0: assembly {\n        /* \"FundMe.sol\":136:1385  contract Fundme{... */\n      mstore(0x40, 0x80)\n      jumpi(tag_1, lt(calldatasize, 0x04))\n      shr(0xe0, calldataload(0x00))\n      dup1\n      0x098de820\n      eq\n      tag_3\n      jumpi\n      dup1\n      0x3ccfd60b\n      eq\n      tag_4\n      jumpi\n      dup1\n      0x3e47d6f3\n      eq\n      tag_5\n      jumpi\n      dup1\n      0xb60d4288\n      eq\n      tag_6\n      jumpi\n      dup1\n      0xdba6335f\n      eq\n      tag_7\n      jumpi\n      dup1\n      0xdc0d3dff\n      eq\n      tag_8\n      jumpi\n      jump(tag_2)\n    tag_1:\n      jumpi(tag_2, calldatasize)\n        /* \"FundMe.sol\":1358:1364  fund() */\n      tag_11\n        /* \"FundMe.sol\":1358:1362  fund */\n      tag_12\n        /* \"FundMe.sol\":1358:1364  fund() */\n      jump\t// in\n    tag_11:\n        /* \"FundMe.sol\":136:1385  contract Fundme{... */\n      stop\n    tag_2:\n        /* \"FundMe.sol\":1298:1304  fund() */\n      tag_15\n        /* \"FundMe.sol\":1298:1302  fund */\n      tag_12\n        /* \"FundMe.sol\":1298:1304  fund() */\n      jump\t// in\n    tag_15:\n        /* \"FundMe.sol\":136:1385  contract Fundme{... */\n      stop\n        /* \"FundMe.sol\":197:227  uint256 public minimumUsd=2e18 */\n    tag_3:\n      callvalue\n      dup1\n      iszero\n      tag_16\n      jumpi\n      0x00\n      dup1\n      revert\n    tag_16:\n      pop\n      tag_17\n      tag_18\n      jump\t// in\n    tag_17:\n      mload(0x40)\n      tag_19\n      swap2\n      swap1\n      tag_20\n      jump\t// in\n    tag_19:\n      mload(0x40)\n      dup1\n      swap2\n      sub\n      swap1\n      return\n        /* \"FundMe.sol\":837:1253  function withdraw() public onlyOwner {... */\n    tag_4:\n      callvalue\n      dup1\n      iszero\n      tag_21\n      jumpi\n      0x00\n      dup1\n      revert\n    tag_21:\n      pop\n      tag_22\n      tag_23\n      jump\t// in\n    tag_22:\n      stop\n        /* \"FundMe.sol\":314:390  mapping(address funder => uint256 amountFunded) public addressToAmountFunded */\n    tag_5:\n      callvalue\n      dup1\n      iszero\n      tag_24\n      jumpi\n      0x00\n      dup1\n      revert\n    tag_24:\n      pop\n      tag_25\n      0x04\n      dup1\n      calldatasize\n      sub\n      dup2\n      add\n      swap1\n      tag_26\n      swap2\n      swap1\n      tag_27\n      jump\t// in\n    tag_26:\n      tag_28\n      jump\t// in\n    tag_25:\n      mload(0x40)\n      tag_29\n      swap2\n      swap1\n      tag_20\n      jump\t// in\n    tag_29:\n      mload(0x40)\n      dup1\n      swap2\n      sub\n      swap1\n      return\n        /* \"FundMe.sol\":399:616  function fund() public payable{... */\n    tag_6:\n      tag_30\n      tag_12\n      jump\t// in\n    tag_30:\n      stop\n        /* \"FundMe.sol\":236:274  address public /* immutable */ i_owner */\n    tag_7:\n      callvalue\n      dup1\n      iszero\n      tag_31\n      jumpi\n      0x00\n      dup1\n      revert\n    tag_31:\n      pop\n      tag_32\n      tag_33\n      jump\t// in\n    tag_32:\n      mload(0x40)\n      tag_34\n      swap2\n      swap1\n      tag_35\n      jump\t// in\n    tag_34:\n      mload(0x40)\n      dup1\n      swap2\n      sub\n      swap1\n      return\n        /* \"FundMe.sol\":283:307  address[] public funders */\n    tag_8:\n      callvalue\n      dup1\n      iszero\n      tag_36\n      jumpi\n      0x00\n      dup1\n      revert\n    tag_36:\n      pop\n      tag_37\n      0x04\n      dup1\n      calldatasize\n      sub\n      dup2\n      add\n      swap1\n      tag_38\n      swap2\n      swap1\n      tag_39\n      jump\t// in\n    tag_38:\n      tag_40\n      jump\t// in\n    tag_37:\n      mload(0x40)\n      tag_41\n      swap2\n      swap1\n      tag_35\n      jump\t// in\n    tag_41:\n      mload(0x40)\n      dup1\n      swap2\n      sub\n      swap1\n      return\n        /* \"FundMe.sol\":399:616  function fund() public payable{... */\n    tag_12:\n        /* \"FundMe.sol\":480:490  minimumUsd */\n      sload(0x00)\n        /* \"FundMe.sol\":448:457  msg.value */\n      callvalue\n        /* \"FundMe.sol\":448:475  msg.value.getConversionRate */\n      linkerSymbol(\"6080d385234601c8db5c8ae5081e001f64feb0718f87d918b85b08538b3c4dd7\")\n      0x6e5b6b28\n      swap1\n      swap2\n        /* \"FundMe.sol\":448:477  msg.value.getConversionRate() */\n      mload(0x40)\n      dup3\n      0xffffffff\n      and\n      0xe0\n      shl\n      dup2\n      mstore\n      0x04\n      add\n      tag_43\n      swap2\n      swap1\n      tag_44\n      jump\t// in\n    tag_43:\n      0x20\n      mload(0x40)\n      dup1\n      dup4\n      sub\n      dup2\n      dup7\n      gas\n      delegatecall\n      iszero\n      dup1\n      iszero\n      tag_46\n      jumpi\n      returndatasize\n      0x00\n      dup1\n      returndatacopy\n      revert(0x00, returndatasize)\n    tag_46:\n      pop\n      pop\n      pop\n      pop\n      mload(0x40)\n      returndatasize\n      not(0x1f)\n      0x1f\n      dup3\n      add\n      and\n      dup3\n      add\n      dup1\n      0x40\n      mstore\n      pop\n      dup2\n      add\n      swap1\n      tag_47\n      swap2\n      swap1\n      tag_48\n      jump\t// in\n    tag_47:\n        /* \"FundMe.sol\":448:490  msg.value.getConversionRate() >=minimumUsd */\n      lt\n      iszero\n        /* \"FundMe.sol\":440:516  require(msg.value.getConversionRate() >=minimumUsd,\"didnt send enough ETH\" ) */\n      tag_49\n      jumpi\n      mload(0x40)\n      0x08c379a000000000000000000000000000000000000000000000000000000000\n      dup2\n      mstore\n      0x04\n      add\n      tag_50\n      swap1\n      tag_51\n      jump\t// in\n    tag_50:\n      mload(0x40)\n      dup1\n      swap2\n      sub\n      swap1\n      revert\n    tag_49:\n        /* \"FundMe.sol\":564:573  msg.value */\n      callvalue\n        /* \"FundMe.sol\":527:548  addressToAmountFunded */\n      0x03\n        /* \"FundMe.sol\":527:560  addressToAmountFunded[msg.sender] */\n      0x00\n        /* \"FundMe.sol\":549:559  msg.sender */\n      caller\n        /* \"FundMe.sol\":527:560  addressToAmountFunded[msg.sender] */\n      0xffffffffffffffffffffffffffffffffffffffff\n      and\n      0xffffffffffffffffffffffffffffffffffffffff\n      and\n      dup2\n      mstore\n      0x20\n      add\n      swap1\n      dup2\n      mstore\n      0x20\n      add\n      0x00\n      keccak256\n      0x00\n        /* \"FundMe.sol\":527:573  addressToAmountFunded[msg.sender] += msg.value */\n      dup3\n      dup3\n      sload\n      tag_52\n      swap2\n      swap1\n      tag_53\n      jump\t// in\n    tag_52:\n      swap3\n      pop\n      pop\n      dup2\n      swap1\n      sstore\n      pop\n        /* \"FundMe.sol\":584:591  funders */\n      0x02\n        /* \"FundMe.sol\":597:607  msg.sender */\n      caller\n        /* \"FundMe.sol\":584:608  funders.push(msg.sender) */\n      swap1\n      dup1\n      0x01\n      dup2\n      sload\n      add\n      dup1\n      dup3\n      sstore\n      dup1\n      swap2\n      pop\n      pop\n      0x01\n      swap1\n      sub\n      swap1\n      0x00\n      mstore\n      keccak256(0x00, 0x20)\n      add\n      0x00\n      swap1\n      swap2\n      swap1\n      swap2\n      swap1\n      swap2\n      0x0100\n      exp\n      dup2\n      sload\n      dup2\n      0xffffffffffffffffffffffffffffffffffffffff\n      mul\n      not\n      and\n      swap1\n      dup4\n      0xffffffffffffffffffffffffffffffffffffffff\n      and\n      mul\n      or\n      swap1\n      sstore\n      pop\n        /* \"FundMe.sol\":399:616  function fund() public payable{... */\n      jump\t// out\n        /* \"FundMe.sol\":197:227  uint256 public minimumUsd=2e18 */\n    tag_18:\n      sload(0x00)\n      dup2\n      jump\t// out\n        /* \"FundMe.sol\":837:1253  function withdraw() public onlyOwner {... */\n    tag_23:\n        /* \"FundMe.sol\":783:790  i_owner */\n      0x01\n      0x00\n      swap1\n      sload\n      swap1\n      0x0100\n      exp\n      swap1\n      div\n      0xffffffffffffffffffffffffffffffffffffffff\n      and\n        /* \"FundMe.sol\":769:790  msg.sender != i_owner */\n      0xffffffffffffffffffffffffffffffffffffffff\n      and\n        /* \"FundMe.sol\":769:779  msg.sender */\n      caller\n        /* \"FundMe.sol\":769:790  msg.sender != i_owner */\n      0xffffffffffffffffffffffffffffffffffffffff\n      and\n      eq\n        /* \"FundMe.sol\":765:809  if (msg.sender != i_owner) revert NotOwner() */\n      tag_56\n      jumpi\n        /* \"FundMe.sol\":799:809  NotOwner() */\n      mload(0x40)\n      0x30cd747100000000000000000000000000000000000000000000000000000000\n      dup2\n      mstore\n      0x04\n      add\n      mload(0x40)\n      dup1\n      swap2\n      sub\n      swap1\n      revert\n        /* \"FundMe.sol\":765:809  if (msg.sender != i_owner) revert NotOwner() */\n    tag_56:\n        /* \"FundMe.sol\":890:909  uint256 funderIndex */\n      0x00\n        /* \"FundMe.sol\":885:1072  for (uint256 funderIndex = 0; funderIndex < funders.length; funderIndex++) {... */\n    tag_58:\n        /* \"FundMe.sol\":929:936  funders */\n      0x02\n        /* \"FundMe.sol\":929:943  funders.length */\n      dup1\n      sload\n      swap1\n      pop\n        /* \"FundMe.sol\":915:926  funderIndex */\n      dup2\n        /* \"FundMe.sol\":915:943  funderIndex < funders.length */\n      lt\n        /* \"FundMe.sol\":885:1072  for (uint256 funderIndex = 0; funderIndex < funders.length; funderIndex++) {... */\n      iszero\n      tag_59\n      jumpi\n        /* \"FundMe.sol\":975:989  address funder */\n      0x00\n        /* \"FundMe.sol\":992:999  funders */\n      0x02\n        /* \"FundMe.sol\":1000:1011  funderIndex */\n      dup3\n        /* \"FundMe.sol\":992:1012  funders[funderIndex] */\n      dup2\n      sload\n      dup2\n      lt\n      tag_61\n      jumpi\n      tag_62\n      tag_63\n      jump\t// in\n    tag_62:\n    tag_61:\n      swap1\n      0x00\n      mstore\n      keccak256(0x00, 0x20)\n      add\n      0x00\n      swap1\n      sload\n      swap1\n      0x0100\n      exp\n      swap1\n      div\n      0xffffffffffffffffffffffffffffffffffffffff\n      and\n        /* \"FundMe.sol\":975:1012  address funder = funders[funderIndex] */\n      swap1\n      pop\n        /* \"FundMe.sol\":1059:1060  0 */\n      0x00\n        /* \"FundMe.sol\":1027:1048  addressToAmountFunded */\n      0x03\n        /* \"FundMe.sol\":1027:1056  addressToAmountFunded[funder] */\n      0x00\n        /* \"FundMe.sol\":1049:1055  funder */\n      dup4\n        /* \"FundMe.sol\":1027:1056  addressToAmountFunded[funder] */\n      0xffffffffffffffffffffffffffffffffffffffff\n      and\n      0xffffffffffffffffffffffffffffffffffffffff\n      and\n      dup2\n      mstore\n      0x20\n      add\n      swap1\n      dup2\n      mstore\n      0x20\n      add\n      0x00\n      keccak256\n        /* \"FundMe.sol\":1027:1060  addressToAmountFunded[funder] = 0 */\n      dup2\n      swap1\n      sstore\n      pop\n        /* \"FundMe.sol\":960:1072  {... */\n      pop\n        /* \"FundMe.sol\":945:958  funderIndex++ */\n      dup1\n      dup1\n      0x01\n      add\n      swap2\n      pop\n      pop\n        /* \"FundMe.sol\":885:1072  for (uint256 funderIndex = 0; funderIndex < funders.length; funderIndex++) {... */\n      jump(tag_58)\n    tag_59:\n      pop\n        /* \"FundMe.sol\":1106:1107  0 */\n      0x00\n        /* \"FundMe.sol\":1092:1108  new address[](0) */\n      0xffffffffffffffff\n      dup2\n      gt\n      iszero\n      tag_65\n      jumpi\n      tag_66\n      tag_67\n      jump\t// in\n    tag_66:\n    tag_65:\n      mload(0x40)\n      swap1\n      dup1\n      dup3\n      mstore\n      dup1\n      0x20\n      mul\n      0x20\n      add\n      dup3\n      add\n      0x40\n      mstore\n      dup1\n      iszero\n      tag_68\n      jumpi\n      dup2\n      0x20\n      add\n      0x20\n      dup3\n      mul\n      dup1\n      calldatasize\n      dup4\n      calldatacopy\n      dup1\n      dup3\n      add\n      swap2\n      pop\n      pop\n      swap1\n      pop\n    tag_68:\n      pop\n        /* \"FundMe.sol\":1082:1089  funders */\n      0x02\n        /* \"FundMe.sol\":1082:1108  funders = new address[](0) */\n      swap1\n      dup1\n      mload\n      swap1\n      0x20\n      add\n      swap1\n      tag_69\n      swap3\n      swap2\n      swap1\n      tag_70\n      jump\t// in\n    tag_69:\n      pop\n        /* \"FundMe.sol\":1120:1136  bool callSuccess */\n      0x00\n        /* \"FundMe.sol\":1149:1159  msg.sender */\n      caller\n        /* \"FundMe.sol\":1141:1165  payable(msg.sender).call */\n      0xffffffffffffffffffffffffffffffffffffffff\n      and\n        /* \"FundMe.sol\":1173:1194  address(this).balance */\n      selfbalance\n        /* \"FundMe.sol\":1141:1199  payable(msg.sender).call{value: address(this).balance}(\"\") */\n      mload(0x40)\n      tag_71\n      swap1\n      tag_72\n      jump\t// in\n    tag_71:\n      0x00\n      mload(0x40)\n      dup1\n      dup4\n      sub\n      dup2\n      dup6\n      dup8\n      gas\n      call\n      swap3\n      pop\n      pop\n      pop\n      returndatasize\n      dup1\n      0x00\n      dup2\n      eq\n      tag_75\n      jumpi\n      mload(0x40)\n      swap2\n      pop\n      and(add(returndatasize, 0x3f), not(0x1f))\n      dup3\n      add\n      0x40\n      mstore\n      returndatasize\n      dup3\n      mstore\n      returndatasize\n      0x00\n      0x20\n      dup5\n      add\n      returndatacopy\n      jump(tag_74)\n    tag_75:\n      0x60\n      swap2\n      pop\n    tag_74:\n      pop\n        /* \"FundMe.sol\":1119:1199  (bool callSuccess,) = payable(msg.sender).call{value: address(this).balance}(\"\") */\n      pop\n      swap1\n      pop\n        /* \"FundMe.sol\":1218:1229  callSuccess */\n      dup1\n        /* \"FundMe.sol\":1210:1245  require(callSuccess, \"Call failed\") */\n      tag_76\n      jumpi\n      mload(0x40)\n      0x08c379a000000000000000000000000000000000000000000000000000000000\n      dup2\n      mstore\n      0x04\n      add\n      tag_77\n      swap1\n      tag_78\n      jump\t// in\n    tag_77:\n      mload(0x40)\n      dup1\n      swap2\n      sub\n      swap1\n      revert\n    tag_76:\n        /* \"FundMe.sol\":874:1253  {... */\n      pop\n        /* \"FundMe.sol\":837:1253  function withdraw() public onlyOwner {... */\n      jump\t// out\n        /* \"FundMe.sol\":314:390  mapping(address funder => uint256 amountFunded) public addressToAmountFunded */\n    tag_28:\n      mstore(0x20, 0x03)\n      dup1\n      0x00\n      mstore\n      keccak256(0x00, 0x40)\n      0x00\n      swap2\n      pop\n      swap1\n      pop\n      sload\n      dup2\n      jump\t// out\n        /* \"FundMe.sol\":236:274  address public /* immutable */ i_owner */\n    tag_33:\n      0x01\n      0x00\n      swap1\n      sload\n      swap1\n      0x0100\n      exp\n      swap1\n      div\n      0xffffffffffffffffffffffffffffffffffffffff\n      and\n      dup2\n      jump\t// out\n        /* \"FundMe.sol\":283:307  address[] public funders */\n    tag_40:\n      0x02\n      dup2\n      dup2\n      sload\n      dup2\n      lt\n      tag_79\n      jumpi\n      0x00\n      dup1\n      revert\n    tag_79:\n      swap1\n      0x00\n      mstore\n      keccak256(0x00, 0x20)\n      add\n      0x00\n      swap2\n      pop\n      sload\n      swap1\n      0x0100\n      exp\n      swap1\n      div\n      0xffffffffffffffffffffffffffffffffffffffff\n      and\n      dup2\n      jump\t// out\n    tag_70:\n      dup3\n      dup1\n      sload\n      dup3\n      dup3\n      sstore\n      swap1\n      0x00\n      mstore\n      keccak256(0x00, 0x20)\n      swap1\n      dup2\n      add\n      swap3\n      dup3\n      iszero\n      tag_81\n      jumpi\n      swap2\n      0x20\n      mul\n      dup3\n      add\n    tag_82:\n      dup3\n      dup2\n      gt\n      iszero\n      tag_83\n      jumpi\n      dup3\n      mload\n      dup3\n      exp(0x0100, 0x00)\n      dup2\n      sload\n      dup2\n      0xffffffffffffffffffffffffffffffffffffffff\n      mul\n      not\n      and\n      swap1\n      dup4\n      0xffffffffffffffffffffffffffffffffffffffff\n      and\n      mul\n      or\n      swap1\n      sstore\n      pop\n      swap2\n      0x20\n      add\n      swap2\n      swap1\n      0x01\n      add\n      swap1\n      jump(tag_82)\n    tag_83:\n    tag_81:\n      pop\n      swap1\n      pop\n      tag_84\n      swap2\n      swap1\n      tag_85\n      jump\t// in\n    tag_84:\n      pop\n      swap1\n      jump\t// out\n    tag_85:\n    tag_86:\n      dup1\n      dup3\n      gt\n      iszero\n      tag_87\n      jumpi\n      0x00\n      dup2\n      0x00\n      swap1\n      sstore\n      pop\n      0x01\n      add\n      jump(tag_86)\n    tag_87:\n      pop\n      swap1\n      jump\t// out\n        /* \"#utility.yul\":7:84   */\n    tag_88:\n        /* \"#utility.yul\":44:51   */\n      0x00\n        /* \"#utility.yul\":73:78   */\n      dup2\n        /* \"#utility.yul\":62:78   */\n      swap1\n      pop\n        /* \"#utility.yul\":7:84   */\n      swap2\n      swap1\n      pop\n      jump\t// out\n        /* \"#utility.yul\":90:208   */\n    tag_89:\n        /* \"#utility.yul\":177:201   */\n      tag_114\n        /* \"#utility.yul\":195:200   */\n      dup2\n        /* \"#utility.yul\":177:201   */\n      tag_88\n      jump\t// in\n    tag_114:\n        /* \"#utility.yul\":172:175   */\n      dup3\n        /* \"#utility.yul\":165:202   */\n      mstore\n        /* \"#utility.yul\":90:208   */\n      pop\n      pop\n      jump\t// out\n        /* \"#utility.yul\":214:436   */\n    tag_20:\n        /* \"#utility.yul\":307:311   */\n      0x00\n        /* \"#utility.yul\":345:347   */\n      0x20\n        /* \"#utility.yul\":334:343   */\n      dup3\n        /* \"#utility.yul\":330:348   */\n      add\n        /* \"#utility.yul\":322:348   */\n      swap1\n      pop\n        /* \"#utility.yul\":358:429   */\n      tag_116\n        /* \"#utility.yul\":426:427   */\n      0x00\n        /* \"#utility.yul\":415:424   */\n      dup4\n        /* \"#utility.yul\":411:428   */\n      add\n        /* \"#utility.yul\":402:408   */\n      dup5\n        /* \"#utility.yul\":358:429   */\n      tag_89\n      jump\t// in\n    tag_116:\n        /* \"#utility.yul\":214:436   */\n      swap3\n      swap2\n      pop\n      pop\n      jump\t// out\n        /* \"#utility.yul\":523:640   */\n    tag_91:\n        /* \"#utility.yul\":632:633   */\n      0x00\n        /* \"#utility.yul\":629:630   */\n      dup1\n        /* \"#utility.yul\":622:634   */\n      revert\n        /* \"#utility.yul\":769:895   */\n    tag_93:\n        /* \"#utility.yul\":806:813   */\n      0x00\n        /* \"#utility.yul\":846:888   */\n      0xffffffffffffffffffffffffffffffffffffffff\n        /* \"#utility.yul\":839:844   */\n      dup3\n        /* \"#utility.yul\":835:889   */\n      and\n        /* \"#utility.yul\":824:889   */\n      swap1\n      pop\n        /* \"#utility.yul\":769:895   */\n      swap2\n      swap1\n      pop\n      jump\t// out\n        /* \"#utility.yul\":901:997   */\n    tag_94:\n        /* \"#utility.yul\":938:945   */\n      0x00\n        /* \"#utility.yul\":967:991   */\n      tag_122\n        /* \"#utility.yul\":985:990   */\n      dup3\n        /* \"#utility.yul\":967:991   */\n      tag_93\n      jump\t// in\n    tag_122:\n        /* \"#utility.yul\":956:991   */\n      swap1\n      pop\n        /* \"#utility.yul\":901:997   */\n      swap2\n      swap1\n      pop\n      jump\t// out\n        /* \"#utility.yul\":1003:1125   */\n    tag_95:\n        /* \"#utility.yul\":1076:1100   */\n      tag_124\n        /* \"#utility.yul\":1094:1099   */\n      dup2\n        /* \"#utility.yul\":1076:1100   */\n      tag_94\n      jump\t// in\n    tag_124:\n        /* \"#utility.yul\":1069:1074   */\n      dup2\n        /* \"#utility.yul\":1066:1101   */\n      eq\n        /* \"#utility.yul\":1056:1119   */\n      tag_125\n      jumpi\n        /* \"#utility.yul\":1115:1116   */\n      0x00\n        /* \"#utility.yul\":1112:1113   */\n      dup1\n        /* \"#utility.yul\":1105:1117   */\n      revert\n        /* \"#utility.yul\":1056:1119   */\n    tag_125:\n        /* \"#utility.yul\":1003:1125   */\n      pop\n      jump\t// out\n        /* \"#utility.yul\":1131:1270   */\n    tag_96:\n        /* \"#utility.yul\":1177:1182   */\n      0x00\n        /* \"#utility.yul\":1215:1221   */\n      dup2\n        /* \"#utility.yul\":1202:1222   */\n      calldataload\n        /* \"#utility.yul\":1193:1222   */\n      swap1\n      pop\n        /* \"#utility.yul\":1231:1264   */\n      tag_127\n        /* \"#utility.yul\":1258:1263   */\n      dup2\n        /* \"#utility.yul\":1231:1264   */\n      tag_95\n      jump\t// in\n    tag_127:\n        /* \"#utility.yul\":1131:1270   */\n      swap3\n      swap2\n      pop\n      pop\n      jump\t// out\n        /* \"#utility.yul\":1276:1605   */\n    tag_27:\n        /* \"#utility.yul\":1335:1341   */\n      0x00\n        /* \"#utility.yul\":1384:1386   */\n      0x20\n        /* \"#utility.yul\":1372:1381   */\n      dup3\n        /* \"#utility.yul\":1363:1370   */\n      dup5\n        /* \"#utility.yul\":1359:1382   */\n      sub\n        /* \"#utility.yul\":1355:1387   */\n      slt\n        /* \"#utility.yul\":1352:1471   */\n      iszero\n      tag_129\n      jumpi\n        /* \"#utility.yul\":1390:1469   */\n      tag_130\n      tag_91\n      jump\t// in\n    tag_130:\n        /* \"#utility.yul\":1352:1471   */\n    tag_129:\n        /* \"#utility.yul\":1510:1511   */\n      0x00\n        /* \"#utility.yul\":1535:1588   */\n      tag_131\n        /* \"#utility.yul\":1580:1587   */\n      dup5\n        /* \"#utility.yul\":1571:1577   */\n      dup3\n        /* \"#utility.yul\":1560:1569   */\n      dup6\n        /* \"#utility.yul\":1556:1578   */\n      add\n        /* \"#utility.yul\":1535:1588   */\n      tag_96\n      jump\t// in\n    tag_131:\n        /* \"#utility.yul\":1525:1588   */\n      swap2\n      pop\n        /* \"#utility.yul\":1481:1598   */\n      pop\n        /* \"#utility.yul\":1276:1605   */\n      swap3\n      swap2\n      pop\n      pop\n      jump\t// out\n        /* \"#utility.yul\":1611:1729   */\n    tag_97:\n        /* \"#utility.yul\":1698:1722   */\n      tag_133\n        /* \"#utility.yul\":1716:1721   */\n      dup2\n        /* \"#utility.yul\":1698:1722   */\n      tag_94\n      jump\t// in\n    tag_133:\n        /* \"#utility.yul\":1693:1696   */\n      dup3\n        /* \"#utility.yul\":1686:1723   */\n      mstore\n        /* \"#utility.yul\":1611:1729   */\n      pop\n      pop\n      jump\t// out\n        /* \"#utility.yul\":1735:1957   */\n    tag_35:\n        /* \"#utility.yul\":1828:1832   */\n      0x00\n        /* \"#utility.yul\":1866:1868   */\n      0x20\n        /* \"#utility.yul\":1855:1864   */\n      dup3\n        /* \"#utility.yul\":1851:1869   */\n      add\n        /* \"#utility.yul\":1843:1869   */\n      swap1\n      pop\n        /* \"#utility.yul\":1879:1950   */\n      tag_135\n        /* \"#utility.yul\":1947:1948   */\n      0x00\n        /* \"#utility.yul\":1936:1945   */\n      dup4\n        /* \"#utility.yul\":1932:1949   */\n      add\n        /* \"#utility.yul\":1923:1929   */\n      dup5\n        /* \"#utility.yul\":1879:1950   */\n      tag_97\n      jump\t// in\n    tag_135:\n        /* \"#utility.yul\":1735:1957   */\n      swap3\n      swap2\n      pop\n      pop\n      jump\t// out\n        /* \"#utility.yul\":1963:2085   */\n    tag_98:\n        /* \"#utility.yul\":2036:2060   */\n      tag_137\n        /* \"#utility.yul\":2054:2059   */\n      dup2\n        /* \"#utility.yul\":2036:2060   */\n      tag_88\n      jump\t// in\n    tag_137:\n        /* \"#utility.yul\":2029:2034   */\n      dup2\n        /* \"#utility.yul\":2026:2061   */\n      eq\n        /* \"#utility.yul\":2016:2079   */\n      tag_138\n      jumpi\n        /* \"#utility.yul\":2075:2076   */\n      0x00\n        /* \"#utility.yul\":2072:2073   */\n      dup1\n        /* \"#utility.yul\":2065:2077   */\n      revert\n        /* \"#utility.yul\":2016:2079   */\n    tag_138:\n        /* \"#utility.yul\":1963:2085   */\n      pop\n      jump\t// out\n        /* \"#utility.yul\":2091:2230   */\n    tag_99:\n        /* \"#utility.yul\":2137:2142   */\n      0x00\n        /* \"#utility.yul\":2175:2181   */\n      dup2\n        /* \"#utility.yul\":2162:2182   */\n      calldataload\n        /* \"#utility.yul\":2153:2182   */\n      swap1\n      pop\n        /* \"#utility.yul\":2191:2224   */\n      tag_140\n        /* \"#utility.yul\":2218:2223   */\n      dup2\n        /* \"#utility.yul\":2191:2224   */\n      tag_98\n      jump\t// in\n    tag_140:\n        /* \"#utility.yul\":2091:2230   */\n      swap3\n      swap2\n      pop\n      pop\n      jump\t// out\n        /* \"#utility.yul\":2236:2565   */\n    tag_39:\n        /* \"#utility.yul\":2295:2301   */\n      0x00\n        /* \"#utility.yul\":2344:2346   */\n      0x20\n        /* \"#utility.yul\":2332:2341   */\n      dup3\n        /* \"#utility.yul\":2323:2330   */\n      dup5\n        /* \"#utility.yul\":2319:2342   */\n      sub\n        /* \"#utility.yul\":2315:2347   */\n      slt\n        /* \"#utility.yul\":2312:2431   */\n      iszero\n      tag_142\n      jumpi\n        /* \"#utility.yul\":2350:2429   */\n      tag_143\n      tag_91\n      jump\t// in\n    tag_143:\n        /* \"#utility.yul\":2312:2431   */\n    tag_142:\n        /* \"#utility.yul\":2470:2471   */\n      0x00\n        /* \"#utility.yul\":2495:2548   */\n      tag_144\n        /* \"#utility.yul\":2540:2547   */\n      dup5\n        /* \"#utility.yul\":2531:2537   */\n      dup3\n        /* \"#utility.yul\":2520:2529   */\n      dup6\n        /* \"#utility.yul\":2516:2538   */\n      add\n        /* \"#utility.yul\":2495:2548   */\n      tag_99\n      jump\t// in\n    tag_144:\n        /* \"#utility.yul\":2485:2548   */\n      swap2\n      pop\n        /* \"#utility.yul\":2441:2558   */\n      pop\n        /* \"#utility.yul\":2236:2565   */\n      swap3\n      swap2\n      pop\n      pop\n      jump\t// out\n        /* \"#utility.yul\":2571:2697   */\n    tag_100:\n        /* \"#utility.yul\":2666:2690   */\n      tag_146\n        /* \"#utility.yul\":2684:2689   */\n      dup2\n        /* \"#utility.yul\":2666:2690   */\n      tag_88\n      jump\t// in\n    tag_146:\n        /* \"#utility.yul\":2661:2664   */\n      dup3\n        /* \"#utility.yul\":2654:2691   */\n      mstore\n        /* \"#utility.yul\":2571:2697   */\n      pop\n      pop\n      jump\t// out\n        /* \"#utility.yul\":2703:2941   */\n    tag_44:\n        /* \"#utility.yul\":2804:2808   */\n      0x00\n        /* \"#utility.yul\":2842:2844   */\n      0x20\n        /* \"#utility.yul\":2831:2840   */\n      dup3\n        /* \"#utility.yul\":2827:2845   */\n      add\n        /* \"#utility.yul\":2819:2845   */\n      swap1\n      pop\n        /* \"#utility.yul\":2855:2934   */\n      tag_148\n        /* \"#utility.yul\":2931:2932   */\n      0x00\n        /* \"#utility.yul\":2920:2929   */\n      dup4\n        /* \"#utility.yul\":2916:2933   */\n      add\n        /* \"#utility.yul\":2907:2913   */\n      dup5\n        /* \"#utility.yul\":2855:2934   */\n      tag_100\n      jump\t// in\n    tag_148:\n        /* \"#utility.yul\":2703:2941   */\n      swap3\n      swap2\n      pop\n      pop\n      jump\t// out\n        /* \"#utility.yul\":2947:3090   */\n    tag_101:\n        /* \"#utility.yul\":3004:3009   */\n      0x00\n        /* \"#utility.yul\":3035:3041   */\n      dup2\n        /* \"#utility.yul\":3029:3042   */\n      mload\n        /* \"#utility.yul\":3020:3042   */\n      swap1\n      pop\n        /* \"#utility.yul\":3051:3084   */\n      tag_150\n        /* \"#utility.yul\":3078:3083   */\n      dup2\n        /* \"#utility.yul\":3051:3084   */\n      tag_98\n      jump\t// in\n    tag_150:\n        /* \"#utility.yul\":2947:3090   */\n      swap3\n      swap2\n      pop\n      pop\n      jump\t// out\n        /* \"#utility.yul\":3096:3447   */\n    tag_48:\n        /* \"#utility.yul\":3166:3172   */\n      0x00\n        /* \"#utility.yul\":3215:3217   */\n      0x20\n        /* \"#utility.yul\":3203:3212   */\n      dup3\n        /* \"#utility.yul\":3194:3201   */\n      dup5\n        /* \"#utility.yul\":3190:3213   */\n      sub\n        /* \"#utility.yul\":3186:3218   */\n      slt\n        /* \"#utility.yul\":3183:3302   */\n      iszero\n      tag_152\n      jumpi\n        /* \"#utility.yul\":3221:3300   */\n      tag_153\n      tag_91\n      jump\t// in\n    tag_153:\n        /* \"#utility.yul\":3183:3302   */\n    tag_152:\n        /* \"#utility.yul\":3341:3342   */\n      0x00\n        /* \"#utility.yul\":3366:3430   */\n      tag_154\n        /* \"#utility.yul\":3422:3429   */\n      dup5\n        /* \"#utility.yul\":3413:3419   */\n      dup3\n        /* \"#utility.yul\":3402:3411   */\n      dup6\n        /* \"#utility.yul\":3398:3420   */\n      add\n        /* \"#utility.yul\":3366:3430   */\n      tag_101\n      jump\t// in\n    tag_154:\n        /* \"#utility.yul\":3356:3430   */\n      swap2\n      pop\n        /* \"#utility.yul\":3312:3440   */\n      pop\n        /* \"#utility.yul\":3096:3447   */\n      swap3\n      swap2\n      pop\n      pop\n      jump\t// out\n        /* \"#utility.yul\":3453:3622   */\n    tag_102:\n        /* \"#utility.yul\":3537:3548   */\n      0x00\n        /* \"#utility.yul\":3571:3577   */\n      dup3\n        /* \"#utility.yul\":3566:3569   */\n      dup3\n        /* \"#utility.yul\":3559:3578   */\n      mstore\n        /* \"#utility.yul\":3611:3615   */\n      0x20\n        /* \"#utility.yul\":3606:3609   */\n      dup3\n        /* \"#utility.yul\":3602:3616   */\n      add\n        /* \"#utility.yul\":3587:3616   */\n      swap1\n      pop\n        /* \"#utility.yul\":3453:3622   */\n      swap3\n      swap2\n      pop\n      pop\n      jump\t// out\n        /* \"#utility.yul\":3628:3799   */\n    tag_103:\n        /* \"#utility.yul\":3768:3791   */\n      0x6469646e742073656e6420656e6f756768204554480000000000000000000000\n        /* \"#utility.yul\":3764:3765   */\n      0x00\n        /* \"#utility.yul\":3756:3762   */\n      dup3\n        /* \"#utility.yul\":3752:3766   */\n      add\n        /* \"#utility.yul\":3745:3792   */\n      mstore\n        /* \"#utility.yul\":3628:3799   */\n      pop\n      jump\t// out\n        /* \"#utility.yul\":3805:4171   */\n    tag_104:\n        /* \"#utility.yul\":3947:3950   */\n      0x00\n        /* \"#utility.yul\":3968:4035   */\n      tag_158\n        /* \"#utility.yul\":4032:4034   */\n      0x15\n        /* \"#utility.yul\":4027:4030   */\n      dup4\n        /* \"#utility.yul\":3968:4035   */\n      tag_102\n      jump\t// in\n    tag_158:\n        /* \"#utility.yul\":3961:4035   */\n      swap2\n      pop\n        /* \"#utility.yul\":4044:4137   */\n      tag_159\n        /* \"#utility.yul\":4133:4136   */\n      dup3\n        /* \"#utility.yul\":4044:4137   */\n      tag_103\n      jump\t// in\n    tag_159:\n        /* \"#utility.yul\":4162:4164   */\n      0x20\n        /* \"#utility.yul\":4157:4160   */\n      dup3\n        /* \"#utility.yul\":4153:4165   */\n      add\n        /* \"#utility.yul\":4146:4165   */\n      swap1\n      pop\n        /* \"#utility.yul\":3805:4171   */\n      swap2\n      swap1\n      pop\n      jump\t// out\n        /* \"#utility.yul\":4177:4596   */\n    tag_51:\n        /* \"#utility.yul\":4343:4347   */\n      0x00\n        /* \"#utility.yul\":4381:4383   */\n      0x20\n        /* \"#utility.yul\":4370:4379   */\n      dup3\n        /* \"#utility.yul\":4366:4384   */\n      add\n        /* \"#utility.yul\":4358:4384   */\n      swap1\n      pop\n        /* \"#utility.yul\":4430:4439   */\n      dup2\n        /* \"#utility.yul\":4424:4428   */\n      dup2\n        /* \"#utility.yul\":4420:4440   */\n      sub\n        /* \"#utility.yul\":4416:4417   */\n      0x00\n        /* \"#utility.yul\":4405:4414   */\n      dup4\n        /* \"#utility.yul\":4401:4418   */\n      add\n        /* \"#utility.yul\":4394:4441   */\n      mstore\n        /* \"#utility.yul\":4458:4589   */\n      tag_161\n        /* \"#utility.yul\":4584:4588   */\n      dup2\n        /* \"#utility.yul\":4458:4589   */\n      tag_104\n      jump\t// in\n    tag_161:\n        /* \"#utility.yul\":4450:4589   */\n      swap1\n      pop\n        /* \"#utility.yul\":4177:4596   */\n      swap2\n      swap1\n      pop\n      jump\t// out\n        /* \"#utility.yul\":4602:4782   */\n    tag_105:\n        /* \"#utility.yul\":4650:4727   */\n      0x4e487b7100000000000000000000000000000000000000000000000000000000\n        /* \"#utility.yul\":4647:4648   */\n      0x00\n        /* \"#utility.yul\":4640:4728   */\n      mstore\n        /* \"#utility.yul\":4747:4751   */\n      0x11\n        /* \"#utility.yul\":4744:4745   */\n      0x04\n        /* \"#utility.yul\":4737:4752   */\n      mstore\n        /* \"#utility.yul\":4771:4775   */\n      0x24\n        /* \"#utility.yul\":4768:4769   */\n      0x00\n        /* \"#utility.yul\":4761:4776   */\n      revert\n        /* \"#utility.yul\":4788:4979   */\n    tag_53:\n        /* \"#utility.yul\":4828:4831   */\n      0x00\n        /* \"#utility.yul\":4847:4867   */\n      tag_164\n        /* \"#utility.yul\":4865:4866   */\n      dup3\n        /* \"#utility.yul\":4847:4867   */\n      tag_88\n      jump\t// in\n    tag_164:\n        /* \"#utility.yul\":4842:4867   */\n      swap2\n      pop\n        /* \"#utility.yul\":4881:4901   */\n      tag_165\n        /* \"#utility.yul\":4899:4900   */\n      dup4\n        /* \"#utility.yul\":4881:4901   */\n      tag_88\n      jump\t// in\n    tag_165:\n        /* \"#utility.yul\":4876:4901   */\n      swap3\n      pop\n        /* \"#utility.yul\":4924:4925   */\n      dup3\n        /* \"#utility.yul\":4921:4922   */\n      dup3\n        /* \"#utility.yul\":4917:4926   */\n      add\n        /* \"#utility.yul\":4910:4926   */\n      swap1\n      pop\n        /* \"#utility.yul\":4945:4948   */\n      dup1\n        /* \"#utility.yul\":4942:4943   */\n      dup3\n        /* \"#utility.yul\":4939:4949   */\n      gt\n        /* \"#utility.yul\":4936:4972   */\n      iszero\n      tag_166\n      jumpi\n        /* \"#utility.yul\":4952:4970   */\n      tag_167\n      tag_105\n      jump\t// in\n    tag_167:\n        /* \"#utility.yul\":4936:4972   */\n    tag_166:\n        /* \"#utility.yul\":4788:4979   */\n      swap3\n      swap2\n      pop\n      pop\n      jump\t// out\n        /* \"#utility.yul\":4985:5165   */\n    tag_63:\n        /* \"#utility.yul\":5033:5110   */\n      0x4e487b7100000000000000000000000000000000000000000000000000000000\n        /* \"#utility.yul\":5030:5031   */\n      0x00\n        /* \"#utility.yul\":5023:5111   */\n      mstore\n        /* \"#utility.yul\":5130:5134   */\n      0x32\n        /* \"#utility.yul\":5127:5128   */\n      0x04\n        /* \"#utility.yul\":5120:5135   */\n      mstore\n        /* \"#utility.yul\":5154:5158   */\n      0x24\n        /* \"#utility.yul\":5151:5152   */\n      0x00\n        /* \"#utility.yul\":5144:5159   */\n      revert\n        /* \"#utility.yul\":5171:5351   */\n    tag_67:\n        /* \"#utility.yul\":5219:5296   */\n      0x4e487b7100000000000000000000000000000000000000000000000000000000\n        /* \"#utility.yul\":5216:5217   */\n      0x00\n        /* \"#utility.yul\":5209:5297   */\n      mstore\n        /* \"#utility.yul\":5316:5320   */\n      0x41\n        /* \"#utility.yul\":5313:5314   */\n      0x04\n        /* \"#utility.yul\":5306:5321   */\n      mstore\n        /* \"#utility.yul\":5340:5344   */\n      0x24\n        /* \"#utility.yul\":5337:5338   */\n      0x00\n        /* \"#utility.yul\":5330:5345   */\n      revert\n        /* \"#utility.yul\":5357:5504   */\n    tag_106:\n        /* \"#utility.yul\":5458:5469   */\n      0x00\n        /* \"#utility.yul\":5495:5498   */\n      dup2\n        /* \"#utility.yul\":5480:5498   */\n      swap1\n      pop\n        /* \"#utility.yul\":5357:5504   */\n      swap3\n      swap2\n      pop\n      pop\n      jump\t// out\n        /* \"#utility.yul\":5510:5624   */\n    tag_107:\n      pop\n      jump\t// out\n        /* \"#utility.yul\":5630:6028   */\n    tag_108:\n        /* \"#utility.yul\":5789:5792   */\n      0x00\n        /* \"#utility.yul\":5810:5893   */\n      tag_173\n        /* \"#utility.yul\":5891:5892   */\n      0x00\n        /* \"#utility.yul\":5886:5889   */\n      dup4\n        /* \"#utility.yul\":5810:5893   */\n      tag_106\n      jump\t// in\n    tag_173:\n        /* \"#utility.yul\":5803:5893   */\n      swap2\n      pop\n        /* \"#utility.yul\":5902:5995   */\n      tag_174\n        /* \"#utility.yul\":5991:5994   */\n      dup3\n        /* \"#utility.yul\":5902:5995   */\n      tag_107\n      jump\t// in\n    tag_174:\n        /* \"#utility.yul\":6020:6021   */\n      0x00\n        /* \"#utility.yul\":6015:6018   */\n      dup3\n        /* \"#utility.yul\":6011:6022   */\n      add\n        /* \"#utility.yul\":6004:6022   */\n      swap1\n      pop\n        /* \"#utility.yul\":5630:6028   */\n      swap2\n      swap1\n      pop\n      jump\t// out\n        /* \"#utility.yul\":6034:6413   */\n    tag_72:\n        /* \"#utility.yul\":6218:6221   */\n      0x00\n        /* \"#utility.yul\":6240:6387   */\n      tag_176\n        /* \"#utility.yul\":6383:6386   */\n      dup3\n        /* \"#utility.yul\":6240:6387   */\n      tag_108\n      jump\t// in\n    tag_176:\n        /* \"#utility.yul\":6233:6387   */\n      swap2\n      pop\n        /* \"#utility.yul\":6404:6407   */\n      dup2\n        /* \"#utility.yul\":6397:6407   */\n      swap1\n      pop\n        /* \"#utility.yul\":6034:6413   */\n      swap2\n      swap1\n      pop\n      jump\t// out\n        /* \"#utility.yul\":6419:6580   */\n    tag_109:\n        /* \"#utility.yul\":6559:6572   */\n      0x43616c6c206661696c6564000000000000000000000000000000000000000000\n        /* \"#utility.yul\":6555:6556   */\n      0x00\n        /* \"#utility.yul\":6547:6553   */\n      dup3\n        /* \"#utility.yul\":6543:6557   */\n      add\n        /* \"#utility.yul\":6536:6573   */\n      mstore\n        /* \"#utility.yul\":6419:6580   */\n      pop\n      jump\t// out\n        /* \"#utility.yul\":6586:6952   */\n    tag_110:\n        /* \"#utility.yul\":6728:6731   */\n      0x00\n        /* \"#utility.yul\":6749:6816   */\n      tag_179\n        /* \"#utility.yul\":6813:6815   */\n      0x0b\n        /* \"#utility.yul\":6808:6811   */\n      dup4\n        /* \"#utility.yul\":6749:6816   */\n      tag_102\n      jump\t// in\n    tag_179:\n        /* \"#utility.yul\":6742:6816   */\n      swap2\n      pop\n        /* \"#utility.yul\":6825:6918   */\n      tag_180\n        /* \"#utility.yul\":6914:6917   */\n      dup3\n        /* \"#utility.yul\":6825:6918   */\n      tag_109\n      jump\t// in\n    tag_180:\n        /* \"#utility.yul\":6943:6945   */\n      0x20\n        /* \"#utility.yul\":6938:6941   */\n      dup3\n        /* \"#utility.yul\":6934:6946   */\n      add\n        /* \"#utility.yul\":6927:6946   */\n      swap1\n      pop\n        /* \"#utility.yul\":6586:6952   */\n      swap2\n      swap1\n      pop\n      jump\t// out\n        /* \"#utility.yul\":6958:7377   */\n    tag_78:\n        /* \"#utility.yul\":7124:7128   */\n      0x00\n        /* \"#utility.yul\":7162:7164   */\n      0x20\n        /* \"#utility.yul\":7151:7160   */\n      dup3\n        /* \"#utility.yul\":7147:7165   */\n      add\n        /* \"#utility.yul\":7139:7165   */\n      swap1\n      pop\n        /* \"#utility.yul\":7211:7220   */\n      dup2\n        /* \"#utility.yul\":7205:7209   */\n      dup2\n        /* \"#utility.yul\":7201:7221   */\n      sub\n        /* \"#utility.yul\":7197:7198   */\n      0x00\n        /* \"#utility.yul\":7186:7195   */\n      dup4\n        /* \"#utility.yul\":7182:7199   */\n      add\n        /* \"#utility.yul\":7175:7222   */\n      mstore\n        /* \"#utility.yul\":7239:7370   */\n      tag_182\n        /* \"#utility.yul\":7365:7369   */\n      dup2\n        /* \"#utility.yul\":7239:7370   */\n      tag_110\n      jump\t// in\n    tag_182:\n        /* \"#utility.yul\":7231:7370   */\n      swap1\n      pop\n        /* \"#utility.yul\":6958:7377   */\n      swap2\n      swap1\n      pop\n      jump\t// out\n\n    auxdata: 0xa2646970667358221220ce3bb713ecc3972d48688ba141ba33789ee92d458af7107162625d5f5645abe864736f6c634300081a0033\n}\n",
				"bytecode": {
					"linkReferences": {
						"PriceConvertor.sol": {
							"PriceConvertor": [
								{
									"length": 20,
									"start": 457
								}
							]
						}
					},
					"object": "6080604052671bc16d674ec800005f553480156019575f80fd5b503360015f6101000a81548173ffffffffffffffffffffffffffffffffffffffff021916908373ffffffffffffffffffffffffffffffffffffffff1602179055506109c7806100675f395ff3fe608060405260043610610058575f3560e01c8063098de820146100715780633ccfd60b1461009b5780633e47d6f3146100b1578063b60d4288146100ed578063dba6335f146100f7578063dc0d3dff1461012157610067565b366100675761006561015d565b005b61006f61015d565b005b34801561007c575f80fd5b506100856102cd565b6040516100929190610630565b60405180910390f35b3480156100a6575f80fd5b506100af6102d2565b005b3480156100bc575f80fd5b506100d760048036038101906100d291906106a7565b610501565b6040516100e49190610630565b60405180910390f35b6100f561015d565b005b348015610102575f80fd5b5061010b610516565b60405161011891906106e1565b60405180910390f35b34801561012c575f80fd5b5061014760048036038101906101429190610724565b61053b565b60405161015491906106e1565b60405180910390f35b5f543473__$6080d385234601c8db5c8ae5081e001f64$__636e5b6b2890916040518263ffffffff1660e01b8152600401610198919061075e565b602060405180830381865af41580156101b3573d5f803e3d5ffd5b505050506040513d601f19601f820116820180604052508101906101d7919061078b565b1015610218576040517f08c379a000000000000000000000000000000000000000000000000000000000815260040161020f90610810565b60405180910390fd5b3460035f3373ffffffffffffffffffffffffffffffffffffffff1673ffffffffffffffffffffffffffffffffffffffff1681526020019081526020015f205f828254610264919061085b565b92505081905550600233908060018154018082558091505060019003905f5260205f20015f9091909190916101000a81548173ffffffffffffffffffffffffffffffffffffffff021916908373ffffffffffffffffffffffffffffffffffffffff160217905550565b5f5481565b60015f9054906101000a900473ffffffffffffffffffffffffffffffffffffffff1673ffffffffffffffffffffffffffffffffffffffff163373ffffffffffffffffffffffffffffffffffffffff1614610358576040517f30cd747100000000000000000000000000000000000000000000000000000000815260040160405180910390fd5b5f5b6002805490508110156103f6575f6002828154811061037c5761037b61088e565b5b905f5260205f20015f9054906101000a900473ffffffffffffffffffffffffffffffffffffffff1690505f60035f8373ffffffffffffffffffffffffffffffffffffffff1673ffffffffffffffffffffffffffffffffffffffff1681526020019081526020015f208190555050808060010191505061035a565b505f67ffffffffffffffff811115610411576104106108bb565b5b60405190808252806020026020018201604052801561043f5781602001602082028036833780820191505090505b5060029080519060200190610455929190610576565b505f3373ffffffffffffffffffffffffffffffffffffffff164760405161047b90610915565b5f6040518083038185875af1925050503d805f81146104b5576040519150601f19603f3d011682016040523d82523d5f602084013e6104ba565b606091505b50509050806104fe576040517f08c379a00000000000000000000000000000000000000000000000000000000081526004016104f590610973565b60405180910390fd5b50565b6003602052805f5260405f205f915090505481565b60015f9054906101000a900473ffffffffffffffffffffffffffffffffffffffff1681565b6002818154811061054a575f80fd5b905f5260205f20015f915054906101000a900473ffffffffffffffffffffffffffffffffffffffff1681565b828054828255905f5260205f209081019282156105ec579160200282015b828111156105eb578251825f6101000a81548173ffffffffffffffffffffffffffffffffffffffff021916908373ffffffffffffffffffffffffffffffffffffffff16021790555091602001919060010190610594565b5b5090506105f991906105fd565b5090565b5b80821115610614575f815f9055506001016105fe565b5090565b5f819050919050565b61062a81610618565b82525050565b5f6020820190506106435f830184610621565b92915050565b5f80fd5b5f73ffffffffffffffffffffffffffffffffffffffff82169050919050565b5f6106768261064d565b9050919050565b6106868161066c565b8114610690575f80fd5b50565b5f813590506106a18161067d565b92915050565b5f602082840312156106bc576106bb610649565b5b5f6106c984828501610693565b91505092915050565b6106db8161066c565b82525050565b5f6020820190506106f45f8301846106d2565b92915050565b61070381610618565b811461070d575f80fd5b50565b5f8135905061071e816106fa565b92915050565b5f6020828403121561073957610738610649565b5b5f61074684828501610710565b91505092915050565b61075881610618565b82525050565b5f6020820190506107715f83018461074f565b92915050565b5f81519050610785816106fa565b92915050565b5f602082840312156107a05761079f610649565b5b5f6107ad84828501610777565b91505092915050565b5f82825260208201905092915050565b7f6469646e742073656e6420656e6f7567682045544800000000000000000000005f82015250565b5f6107fa6015836107b6565b9150610805826107c6565b602082019050919050565b5f6020820190508181035f830152610827816107ee565b9050919050565b7f4e487b71000000000000000000000000000000000000000000000000000000005f52601160045260245ffd5b5f61086582610618565b915061087083610618565b92508282019050808211156108885761088761082e565b5b92915050565b7f4e487b71000000000000000000000000000000000000000000000000000000005f52603260045260245ffd5b7f4e487b71000000000000000000000000000000000000000000000000000000005f52604160045260245ffd5b5f81905092915050565b50565b5f6109005f836108e8565b915061090b826108f2565b5f82019050919050565b5f61091f826108f5565b9150819050919050565b7f43616c6c206661696c65640000000000000000000000000000000000000000005f82015250565b5f61095d600b836107b6565b915061096882610929565b602082019050919050565b5f6020820190508181035f83015261098a81610951565b905091905056fea2646970667358221220ce3bb713ecc3972d48688ba141ba33789ee92d458af7107162625d5f5645abe864736f6c634300081a0033",
					"opcodes": "PUSH1 0x80 PUSH1 0x40 MSTORE PUSH8 0x1BC16D674EC80000 PUSH0 SSTORE CALLVALUE DUP1 ISZERO PUSH1 0x19 JUMPI PUSH0 DUP1 REVERT JUMPDEST POP CALLER PUSH1 0x1 PUSH0 PUSH2 0x100 EXP DUP2 SLOAD DUP2 PUSH20 0xFFFFFFFFFFFFFFFFFFFFFFFFFFFFFFFFFFFFFFFF MUL NOT AND SWAP1 DUP4 PUSH20 0xFFFFFFFFFFFFFFFFFFFFFFFFFFFFFFFFFFFFFFFF AND MUL OR SWAP1 SSTORE POP PUSH2 0x9C7 DUP1 PUSH2 0x67 PUSH0 CODECOPY PUSH0 RETURN INVALID PUSH1 0x80 PUSH1 0x40 MSTORE PUSH1 0x4 CALLDATASIZE LT PUSH2 0x58 JUMPI PUSH0 CALLDATALOAD PUSH1 0xE0 SHR DUP1 PUSH4 0x98DE820 EQ PUSH2 0x71 JUMPI DUP1 PUSH4 0x3CCFD60B EQ PUSH2 0x9B JUMPI DUP1 PUSH4 0x3E47D6F3 EQ PUSH2 0xB1 JUMPI DUP1 PUSH4 0xB60D4288 EQ PUSH2 0xED JUMPI DUP1 PUSH4 0xDBA6335F EQ PUSH2 0xF7 JUMPI DUP1 PUSH4 0xDC0D3DFF EQ PUSH2 0x121 JUMPI PUSH2 0x67 JUMP JUMPDEST CALLDATASIZE PUSH2 0x67 JUMPI PUSH2 0x65 PUSH2 0x15D JUMP JUMPDEST STOP JUMPDEST PUSH2 0x6F PUSH2 0x15D JUMP JUMPDEST STOP JUMPDEST CALLVALUE DUP1 ISZERO PUSH2 0x7C JUMPI PUSH0 DUP1 REVERT JUMPDEST POP PUSH2 0x85 PUSH2 0x2CD JUMP JUMPDEST PUSH1 0x40 MLOAD PUSH2 0x92 SWAP2 SWAP1 PUSH2 0x630 JUMP JUMPDEST PUSH1 0x40 MLOAD DUP1 SWAP2 SUB SWAP1 RETURN JUMPDEST CALLVALUE DUP1 ISZERO PUSH2 0xA6 JUMPI PUSH0 DUP1 REVERT JUMPDEST POP PUSH2 0xAF PUSH2 0x2D2 JUMP JUMPDEST STOP JUMPDEST CALLVALUE DUP1 ISZERO PUSH2 0xBC JUMPI PUSH0 DUP1 REVERT JUMPDEST POP PUSH2 0xD7 PUSH1 0x4 DUP1 CALLDATASIZE SUB DUP2 ADD SWAP1 PUSH2 0xD2 SWAP2 SWAP1 PUSH2 0x6A7 JUMP JUMPDEST PUSH2 0x501 JUMP JUMPDEST PUSH1 0x40 MLOAD PUSH2 0xE4 SWAP2 SWAP1 PUSH2 0x630 JUMP JUMPDEST PUSH1 0x40 MLOAD DUP1 SWAP2 SUB SWAP1 RETURN JUMPDEST PUSH2 0xF5 PUSH2 0x15D JUMP JUMPDEST STOP JUMPDEST CALLVALUE DUP1 ISZERO PUSH2 0x102 JUMPI PUSH0 DUP1 REVERT JUMPDEST POP PUSH2 0x10B PUSH2 0x516 JUMP JUMPDEST PUSH1 0x40 MLOAD PUSH2 0x118 SWAP2 SWAP1 PUSH2 0x6E1 JUMP JUMPDEST PUSH1 0x40 MLOAD DUP1 SWAP2 SUB SWAP1 RETURN JUMPDEST CALLVALUE DUP1 ISZERO PUSH2 0x12C JUMPI PUSH0 DUP1 REVERT JUMPDEST POP PUSH2 0x147 PUSH1 0x4 DUP1 CALLDATASIZE SUB DUP2 ADD SWAP1 PUSH2 0x142 SWAP2 SWAP1 PUSH2 0x724 JUMP JUMPDEST PUSH2 0x53B JUMP JUMPDEST PUSH1 0x40 MLOAD PUSH2 0x154 SWAP2 SWAP1 PUSH2 0x6E1 JUMP JUMPDEST PUSH1 0x40 MLOAD DUP1 SWAP2 SUB SWAP1 RETURN JUMPDEST PUSH0 SLOAD CALLVALUE PUSH20 0x0 PUSH4 0x6E5B6B28 SWAP1 SWAP2 PUSH1 0x40 MLOAD DUP3 PUSH4 0xFFFFFFFF AND PUSH1 0xE0 SHL DUP2 MSTORE PUSH1 0x4 ADD PUSH2 0x198 SWAP2 SWAP1 PUSH2 0x75E JUMP JUMPDEST PUSH1 0x20 PUSH1 0x40 MLOAD DUP1 DUP4 SUB DUP2 DUP7 GAS DELEGATECALL ISZERO DUP1 ISZERO PUSH2 0x1B3 JUMPI RETURNDATASIZE PUSH0 DUP1 RETURNDATACOPY RETURNDATASIZE PUSH0 REVERT JUMPDEST POP POP POP POP PUSH1 0x40 MLOAD RETURNDATASIZE PUSH1 0x1F NOT PUSH1 0x1F DUP3 ADD AND DUP3 ADD DUP1 PUSH1 0x40 MSTORE POP DUP2 ADD SWAP1 PUSH2 0x1D7 SWAP2 SWAP1 PUSH2 0x78B JUMP JUMPDEST LT ISZERO PUSH2 0x218 JUMPI PUSH1 0x40 MLOAD PUSH32 0x8C379A000000000000000000000000000000000000000000000000000000000 DUP2 MSTORE PUSH1 0x4 ADD PUSH2 0x20F SWAP1 PUSH2 0x810 JUMP JUMPDEST PUSH1 0x40 MLOAD DUP1 SWAP2 SUB SWAP1 REVERT JUMPDEST CALLVALUE PUSH1 0x3 PUSH0 CALLER PUSH20 0xFFFFFFFFFFFFFFFFFFFFFFFFFFFFFFFFFFFFFFFF AND PUSH20 0xFFFFFFFFFFFFFFFFFFFFFFFFFFFFFFFFFFFFFFFF AND DUP2 MSTORE PUSH1 0x20 ADD SWAP1 DUP2 MSTORE PUSH1 0x20 ADD PUSH0 KECCAK256 PUSH0 DUP3 DUP3 SLOAD PUSH2 0x264 SWAP2 SWAP1 PUSH2 0x85B JUMP JUMPDEST SWAP3 POP POP DUP2 SWAP1 SSTORE POP PUSH1 0x2 CALLER SWAP1 DUP1 PUSH1 0x1 DUP2 SLOAD ADD DUP1 DUP3 SSTORE DUP1 SWAP2 POP POP PUSH1 0x1 SWAP1 SUB SWAP1 PUSH0 MSTORE PUSH1 0x20 PUSH0 KECCAK256 ADD PUSH0 SWAP1 SWAP2 SWAP1 SWAP2 SWAP1 SWAP2 PUSH2 0x100 EXP DUP2 SLOAD DUP2 PUSH20 0xFFFFFFFFFFFFFFFFFFFFFFFFFFFFFFFFFFFFFFFF MUL NOT AND SWAP1 DUP4 PUSH20 0xFFFFFFFFFFFFFFFFFFFFFFFFFFFFFFFFFFFFFFFF AND MUL OR SWAP1 SSTORE POP JUMP JUMPDEST PUSH0 SLOAD DUP2 JUMP JUMPDEST PUSH1 0x1 PUSH0 SWAP1 SLOAD SWAP1 PUSH2 0x100 EXP SWAP1 DIV PUSH20 0xFFFFFFFFFFFFFFFFFFFFFFFFFFFFFFFFFFFFFFFF AND PUSH20 0xFFFFFFFFFFFFFFFFFFFFFFFFFFFFFFFFFFFFFFFF AND CALLER PUSH20 0xFFFFFFFFFFFFFFFFFFFFFFFFFFFFFFFFFFFFFFFF AND EQ PUSH2 0x358 JUMPI PUSH1 0x40 MLOAD PUSH32 0x30CD747100000000000000000000000000000000000000000000000000000000 DUP2 MSTORE PUSH1 0x4 ADD PUSH1 0x40 MLOAD DUP1 SWAP2 SUB SWAP1 REVERT JUMPDEST PUSH0 JUMPDEST PUSH1 0x2 DUP1 SLOAD SWAP1 POP DUP2 LT ISZERO PUSH2 0x3F6 JUMPI PUSH0 PUSH1 0x2 DUP3 DUP2 SLOAD DUP2 LT PUSH2 0x37C JUMPI PUSH2 0x37B PUSH2 0x88E JUMP JUMPDEST JUMPDEST SWAP1 PUSH0 MSTORE PUSH1 0x20 PUSH0 KECCAK256 ADD PUSH0 SWAP1 SLOAD SWAP1 PUSH2 0x100 EXP SWAP1 DIV PUSH20 0xFFFFFFFFFFFFFFFFFFFFFFFFFFFFFFFFFFFFFFFF AND SWAP1 POP PUSH0 PUSH1 0x3 PUSH0 DUP4 PUSH20 0xFFFFFFFFFFFFFFFFFFFFFFFFFFFFFFFFFFFFFFFF AND PUSH20 0xFFFFFFFFFFFFFFFFFFFFFFFFFFFFFFFFFFFFFFFF AND DUP2 MSTORE PUSH1 0x20 ADD SWAP1 DUP2 MSTORE PUSH1 0x20 ADD PUSH0 KECCAK256 DUP2 SWAP1 SSTORE POP POP DUP1 DUP1 PUSH1 0x1 ADD SWAP2 POP POP PUSH2 0x35A JUMP JUMPDEST POP PUSH0 PUSH8 0xFFFFFFFFFFFFFFFF DUP2 GT ISZERO PUSH2 0x411 JUMPI PUSH2 0x410 PUSH2 0x8BB JUMP JUMPDEST JUMPDEST PUSH1 0x40 MLOAD SWAP1 DUP1 DUP3 MSTORE DUP1 PUSH1 0x20 MUL PUSH1 0x20 ADD DUP3 ADD PUSH1 0x40 MSTORE DUP1 ISZERO PUSH2 0x43F JUMPI DUP2 PUSH1 0x20 ADD PUSH1 0x20 DUP3 MUL DUP1 CALLDATASIZE DUP4 CALLDATACOPY DUP1 DUP3 ADD SWAP2 POP POP SWAP1 POP JUMPDEST POP PUSH1 0x2 SWAP1 DUP1 MLOAD SWAP1 PUSH1 0x20 ADD SWAP1 PUSH2 0x455 SWAP3 SWAP2 SWAP1 PUSH2 0x576 JUMP JUMPDEST POP PUSH0 CALLER PUSH20 0xFFFFFFFFFFFFFFFFFFFFFFFFFFFFFFFFFFFFFFFF AND SELFBALANCE PUSH1 0x40 MLOAD PUSH2 0x47B SWAP1 PUSH2 0x915 JUMP JUMPDEST PUSH0 PUSH1 0x40 MLOAD DUP1 DUP4 SUB DUP2 DUP6 DUP8 GAS CALL SWAP3 POP POP POP RETURNDATASIZE DUP1 PUSH0 DUP2 EQ PUSH2 0x4B5 JUMPI PUSH1 0x40 MLOAD SWAP2 POP PUSH1 0x1F NOT PUSH1 0x3F RETURNDATASIZE ADD AND DUP3 ADD PUSH1 0x40 MSTORE RETURNDATASIZE DUP3 MSTORE RETURNDATASIZE PUSH0 PUSH1 0x20 DUP5 ADD RETURNDATACOPY PUSH2 0x4BA JUMP JUMPDEST PUSH1 0x60 SWAP2 POP JUMPDEST POP POP SWAP1 POP DUP1 PUSH2 0x4FE JUMPI PUSH1 0x40 MLOAD PUSH32 0x8C379A000000000000000000000000000000000000000000000000000000000 DUP2 MSTORE PUSH1 0x4 ADD PUSH2 0x4F5 SWAP1 PUSH2 0x973 JUMP JUMPDEST PUSH1 0x40 MLOAD DUP1 SWAP2 SUB SWAP1 REVERT JUMPDEST POP JUMP JUMPDEST PUSH1 0x3 PUSH1 0x20 MSTORE DUP1 PUSH0 MSTORE PUSH1 0x40 PUSH0 KECCAK256 PUSH0 SWAP2 POP SWAP1 POP SLOAD DUP2 JUMP JUMPDEST PUSH1 0x1 PUSH0 SWAP1 SLOAD SWAP1 PUSH2 0x100 EXP SWAP1 DIV PUSH20 0xFFFFFFFFFFFFFFFFFFFFFFFFFFFFFFFFFFFFFFFF AND DUP2 JUMP JUMPDEST PUSH1 0x2 DUP2 DUP2 SLOAD DUP2 LT PUSH2 0x54A JUMPI PUSH0 DUP1 REVERT JUMPDEST SWAP1 PUSH0 MSTORE PUSH1 0x20 PUSH0 KECCAK256 ADD PUSH0 SWAP2 POP SLOAD SWAP1 PUSH2 0x100 EXP SWAP1 DIV PUSH20 0xFFFFFFFFFFFFFFFFFFFFFFFFFFFFFFFFFFFFFFFF AND DUP2 JUMP JUMPDEST DUP3 DUP1 SLOAD DUP3 DUP3 SSTORE SWAP1 PUSH0 MSTORE PUSH1 0x20 PUSH0 KECCAK256 SWAP1 DUP2 ADD SWAP3 DUP3 ISZERO PUSH2 0x5EC JUMPI SWAP2 PUSH1 0x20 MUL DUP3 ADD JUMPDEST DUP3 DUP2 GT ISZERO PUSH2 0x5EB JUMPI DUP3 MLOAD DUP3 PUSH0 PUSH2 0x100 EXP DUP2 SLOAD DUP2 PUSH20 0xFFFFFFFFFFFFFFFFFFFFFFFFFFFFFFFFFFFFFFFF MUL NOT AND SWAP1 DUP4 PUSH20 0xFFFFFFFFFFFFFFFFFFFFFFFFFFFFFFFFFFFFFFFF AND MUL OR SWAP1 SSTORE POP SWAP2 PUSH1 0x20 ADD SWAP2 SWAP1 PUSH1 0x1 ADD SWAP1 PUSH2 0x594 JUMP JUMPDEST JUMPDEST POP SWAP1 POP PUSH2 0x5F9 SWAP2 SWAP1 PUSH2 0x5FD JUMP JUMPDEST POP SWAP1 JUMP JUMPDEST JUMPDEST DUP1 DUP3 GT ISZERO PUSH2 0x614 JUMPI PUSH0 DUP2 PUSH0 SWAP1 SSTORE POP PUSH1 0x1 ADD PUSH2 0x5FE JUMP JUMPDEST POP SWAP1 JUMP JUMPDEST PUSH0 DUP2 SWAP1 POP SWAP2 SWAP1 POP JUMP JUMPDEST PUSH2 0x62A DUP2 PUSH2 0x618 JUMP JUMPDEST DUP3 MSTORE POP POP JUMP JUMPDEST PUSH0 PUSH1 0x20 DUP3 ADD SWAP1 POP PUSH2 0x643 PUSH0 DUP4 ADD DUP5 PUSH2 0x621 JUMP JUMPDEST SWAP3 SWAP2 POP POP JUMP JUMPDEST PUSH0 DUP1 REVERT JUMPDEST PUSH0 PUSH20 0xFFFFFFFFFFFFFFFFFFFFFFFFFFFFFFFFFFFFFFFF DUP3 AND SWAP1 POP SWAP2 SWAP1 POP JUMP JUMPDEST PUSH0 PUSH2 0x676 DUP3 PUSH2 0x64D JUMP JUMPDEST SWAP1 POP SWAP2 SWAP1 POP JUMP JUMPDEST PUSH2 0x686 DUP2 PUSH2 0x66C JUMP JUMPDEST DUP2 EQ PUSH2 0x690 JUMPI PUSH0 DUP1 REVERT JUMPDEST POP JUMP JUMPDEST PUSH0 DUP2 CALLDATALOAD SWAP1 POP PUSH2 0x6A1 DUP2 PUSH2 0x67D JUMP JUMPDEST SWAP3 SWAP2 POP POP JUMP JUMPDEST PUSH0 PUSH1 0x20 DUP3 DUP5 SUB SLT ISZERO PUSH2 0x6BC JUMPI PUSH2 0x6BB PUSH2 0x649 JUMP JUMPDEST JUMPDEST PUSH0 PUSH2 0x6C9 DUP5 DUP3 DUP6 ADD PUSH2 0x693 JUMP JUMPDEST SWAP2 POP POP SWAP3 SWAP2 POP POP JUMP JUMPDEST PUSH2 0x6DB DUP2 PUSH2 0x66C JUMP JUMPDEST DUP3 MSTORE POP POP JUMP JUMPDEST PUSH0 PUSH1 0x20 DUP3 ADD SWAP1 POP PUSH2 0x6F4 PUSH0 DUP4 ADD DUP5 PUSH2 0x6D2 JUMP JUMPDEST SWAP3 SWAP2 POP POP JUMP JUMPDEST PUSH2 0x703 DUP2 PUSH2 0x618 JUMP JUMPDEST DUP2 EQ PUSH2 0x70D JUMPI PUSH0 DUP1 REVERT JUMPDEST POP JUMP JUMPDEST PUSH0 DUP2 CALLDATALOAD SWAP1 POP PUSH2 0x71E DUP2 PUSH2 0x6FA JUMP JUMPDEST SWAP3 SWAP2 POP POP JUMP JUMPDEST PUSH0 PUSH1 0x20 DUP3 DUP5 SUB SLT ISZERO PUSH2 0x739 JUMPI PUSH2 0x738 PUSH2 0x649 JUMP JUMPDEST JUMPDEST PUSH0 PUSH2 0x746 DUP5 DUP3 DUP6 ADD PUSH2 0x710 JUMP JUMPDEST SWAP2 POP POP SWAP3 SWAP2 POP POP JUMP JUMPDEST PUSH2 0x758 DUP2 PUSH2 0x618 JUMP JUMPDEST DUP3 MSTORE POP POP JUMP JUMPDEST PUSH0 PUSH1 0x20 DUP3 ADD SWAP1 POP PUSH2 0x771 PUSH0 DUP4 ADD DUP5 PUSH2 0x74F JUMP JUMPDEST SWAP3 SWAP2 POP POP JUMP JUMPDEST PUSH0 DUP2 MLOAD SWAP1 POP PUSH2 0x785 DUP2 PUSH2 0x6FA JUMP JUMPDEST SWAP3 SWAP2 POP POP JUMP JUMPDEST PUSH0 PUSH1 0x20 DUP3 DUP5 SUB SLT ISZERO PUSH2 0x7A0 JUMPI PUSH2 0x79F PUSH2 0x649 JUMP JUMPDEST JUMPDEST PUSH0 PUSH2 0x7AD DUP5 DUP3 DUP6 ADD PUSH2 0x777 JUMP JUMPDEST SWAP2 POP POP SWAP3 SWAP2 POP POP JUMP JUMPDEST PUSH0 DUP3 DUP3 MSTORE PUSH1 0x20 DUP3 ADD SWAP1 POP SWAP3 SWAP2 POP POP JUMP JUMPDEST PUSH32 0x6469646E742073656E6420656E6F756768204554480000000000000000000000 PUSH0 DUP3 ADD MSTORE POP JUMP JUMPDEST PUSH0 PUSH2 0x7FA PUSH1 0x15 DUP4 PUSH2 0x7B6 JUMP JUMPDEST SWAP2 POP PUSH2 0x805 DUP3 PUSH2 0x7C6 JUMP JUMPDEST PUSH1 0x20 DUP3 ADD SWAP1 POP SWAP2 SWAP1 POP JUMP JUMPDEST PUSH0 PUSH1 0x20 DUP3 ADD SWAP1 POP DUP2 DUP2 SUB PUSH0 DUP4 ADD MSTORE PUSH2 0x827 DUP2 PUSH2 0x7EE JUMP JUMPDEST SWAP1 POP SWAP2 SWAP1 POP JUMP JUMPDEST PUSH32 0x4E487B7100000000000000000000000000000000000000000000000000000000 PUSH0 MSTORE PUSH1 0x11 PUSH1 0x4 MSTORE PUSH1 0x24 PUSH0 REVERT JUMPDEST PUSH0 PUSH2 0x865 DUP3 PUSH2 0x618 JUMP JUMPDEST SWAP2 POP PUSH2 0x870 DUP4 PUSH2 0x618 JUMP JUMPDEST SWAP3 POP DUP3 DUP3 ADD SWAP1 POP DUP1 DUP3 GT ISZERO PUSH2 0x888 JUMPI PUSH2 0x887 PUSH2 0x82E JUMP JUMPDEST JUMPDEST SWAP3 SWAP2 POP POP JUMP JUMPDEST PUSH32 0x4E487B7100000000000000000000000000000000000000000000000000000000 PUSH0 MSTORE PUSH1 0x32 PUSH1 0x4 MSTORE PUSH1 0x24 PUSH0 REVERT JUMPDEST PUSH32 0x4E487B7100000000000000000000000000000000000000000000000000000000 PUSH0 MSTORE PUSH1 0x41 PUSH1 0x4 MSTORE PUSH1 0x24 PUSH0 REVERT JUMPDEST PUSH0 DUP2 SWAP1 POP SWAP3 SWAP2 POP POP JUMP JUMPDEST POP JUMP JUMPDEST PUSH0 PUSH2 0x900 PUSH0 DUP4 PUSH2 0x8E8 JUMP JUMPDEST SWAP2 POP PUSH2 0x90B DUP3 PUSH2 0x8F2 JUMP JUMPDEST PUSH0 DUP3 ADD SWAP1 POP SWAP2 SWAP1 POP JUMP JUMPDEST PUSH0 PUSH2 0x91F DUP3 PUSH2 0x8F5 JUMP JUMPDEST SWAP2 POP DUP2 SWAP1 POP SWAP2 SWAP1 POP JUMP JUMPDEST PUSH32 0x43616C6C206661696C6564000000000000000000000000000000000000000000 PUSH0 DUP3 ADD MSTORE POP JUMP JUMPDEST PUSH0 PUSH2 0x95D PUSH1 0xB DUP4 PUSH2 0x7B6 JUMP JUMPDEST SWAP2 POP PUSH2 0x968 DUP3 PUSH2 0x929 JUMP JUMPDEST PUSH1 0x20 DUP3 ADD SWAP1 POP SWAP2 SWAP1 POP JUMP JUMPDEST PUSH0 PUSH1 0x20 DUP3 ADD SWAP1 POP DUP2 DUP2 SUB PUSH0 DUP4 ADD MSTORE PUSH2 0x98A DUP2 PUSH2 0x951 JUMP JUMPDEST SWAP1 POP SWAP2 SWAP1 POP JUMP INVALID LOG2 PUSH5 0x6970667358 0x22 SLT KECCAK256 0xCE EXTCODESIZE 0xB7 SGT 0xEC 0xC3 SWAP8 0x2D BASEFEE PUSH9 0x8BA141BA33789EE92D GASLIMIT DUP11 0xF7 LT PUSH18 0x62625D5F5645ABE864736F6C634300081A00 CALLER "
				},
				"gasEstimates": {
					"creation": {
						"codeDepositCost": "500600",
						"executionCost": "46905",
						"totalCost": "547505"
					},
					"external": {
						"": "infinite",
						"addressToAmountFunded(address)": "2824",
						"fund()": "infinite",
						"funders(uint256)": "5032",
						"i_owner()": "2574",
						"minimumUsd()": "2402",
						"withdraw()": "infinite"
					}
				},
				"methodIdentifiers": {
					"addressToAmountFunded(address)": "3e47d6f3",
					"fund()": "b60d4288",
					"funders(uint256)": "dc0d3dff",
					"i_owner()": "dba6335f",
					"minimumUsd()": "098de820",
					"withdraw()": "3ccfd60b"
				}
			},
			"storageLayout": {
				"storage": [
					{
						"astId": 57,
						"contract": "FundMe.sol:Fundme",
						"label": "minimumUsd",
						"offset": 0,
						"slot": "0",
						"type": "t_uint256"
					},
					{
						"astId": 59,
						"contract": "FundMe.sol:Fundme",
						"label": "i_owner",
						"offset": 0,
						"slot": "1",
						"type": "t_address"
					},
					{
						"astId": 62,
						"contract": "FundMe.sol:Fundme",
						"label": "funders",
						"offset": 0,
						"slot": "2",
						"type": "t_array(t_address)dyn_storage"
					},
					{
						"astId": 66,
						"contract": "FundMe.sol:Fundme",
						"label": "addressToAmountFunded",
						"offset": 0,
						"slot": "3",
						"type": "t_mapping(t_address,t_uint256)"
					}
				],
				"types": {
					"t_address": {
						"encoding": "inplace",
						"label": "address",
						"numberOfBytes": "20"
					},
					"t_array(t_address)dyn_storage": {
						"base": "t_address",
						"encoding": "dynamic_array",
						"label": "address[]",
						"numberOfBytes": "32"
					},
					"t_mapping(t_address,t_uint256)": {
						"encoding": "mapping",
						"key": "t_address",
						"label": "mapping(address => uint256)",
						"numberOfBytes": "32",
						"value": "t_uint256"
					},
					"t_uint256": {
						"encoding": "inplace",
						"label": "uint256",
						"numberOfBytes": "32"
					}
				}
			},
			"userdoc": {
				"kind": "user",
				"methods": {},
				"version": 1
			}
		}
	}
}